{
  "contractName": "AadhaarVerification",
  "abi": [
    {
      "inputs": [],
      "stateMutability": "nonpayable",
      "type": "constructor"
    },
    {
      "anonymous": false,
      "inputs": [
        {
          "indexed": true,
          "internalType": "string",
          "name": "aadhaarHash",
          "type": "string"
        },
        {
          "indexed": false,
          "internalType": "uint256",
          "name": "timestamp",
          "type": "uint256"
        }
      ],
      "name": "AadhaarRegistered",
      "type": "event"
    },
    {
      "anonymous": false,
      "inputs": [
        {
          "indexed": true,
          "internalType": "string",
          "name": "aadhaarHash",
          "type": "string"
        },
        {
          "indexed": false,
          "internalType": "bool",
          "name": "status",
          "type": "bool"
        }
      ],
      "name": "AadhaarVerified",
      "type": "event"
    },
    {
      "inputs": [],
      "name": "owner",
      "outputs": [
        {
          "internalType": "address",
          "name": "",
          "type": "address"
        }
      ],
      "stateMutability": "view",
      "type": "function",
      "constant": true
    },
    {
      "inputs": [],
      "name": "recordCount",
      "outputs": [
        {
          "internalType": "uint256",
          "name": "",
          "type": "uint256"
        }
      ],
      "stateMutability": "view",
      "type": "function",
      "constant": true
    },
    {
      "inputs": [
        {
          "internalType": "string",
          "name": "_aadhaarHash",
          "type": "string"
        },
        {
          "internalType": "string",
          "name": "_name",
          "type": "string"
        },
        {
          "internalType": "string",
          "name": "_dob",
          "type": "string"
        },
        {
          "internalType": "string",
          "name": "_gender",
          "type": "string"
        },
        {
          "internalType": "string",
          "name": "_addressHash",
          "type": "string"
        },
        {
          "internalType": "string",
          "name": "_encryptedData",
          "type": "string"
        }
      ],
      "name": "registerAadhaar",
      "outputs": [],
      "stateMutability": "nonpayable",
      "type": "function"
    },
    {
      "inputs": [
        {
          "internalType": "string",
          "name": "_aadhaarHash",
          "type": "string"
        }
      ],
      "name": "verifyAadhaar",
      "outputs": [
        {
          "internalType": "string",
          "name": "name",
          "type": "string"
        },
        {
          "internalType": "string",
          "name": "dob",
          "type": "string"
        },
        {
          "internalType": "string",
          "name": "gender",
          "type": "string"
        },
        {
          "internalType": "bool",
          "name": "isVerified",
          "type": "bool"
        },
        {
          "internalType": "uint256",
          "name": "timestamp",
          "type": "uint256"
        },
        {
          "internalType": "string",
          "name": "encryptedData",
          "type": "string"
        }
      ],
      "stateMutability": "view",
      "type": "function",
      "constant": true
    },
    {
      "inputs": [],
      "name": "getRecordCount",
      "outputs": [
        {
          "internalType": "uint256",
          "name": "",
          "type": "uint256"
        }
      ],
      "stateMutability": "view",
      "type": "function",
      "constant": true
    },
    {
      "inputs": [
        {
          "internalType": "string",
          "name": "_aadhaarHash",
          "type": "string"
        }
      ],
      "name": "isAadhaarRegistered",
      "outputs": [
        {
          "internalType": "bool",
          "name": "",
          "type": "bool"
        }
      ],
      "stateMutability": "view",
      "type": "function",
      "constant": true
    }
  ],
  "bytecode": "0x608060405234801561001057600080fd5b50600180546001600160a01b031916331790556000600255610c0e806100376000396000f3fe608060405234801561001057600080fd5b50600436106100625760003560e01c80638da5cb5b14610067578063900407bc14610085578063a0e582c31461009a578063c012b31b146100bf578063ca267f28146100d4578063d671af62146100dc575b600080fd5b61006f6100fc565b60405161007c91906109fc565b60405180910390f35b61008d61010b565b60405161007c9190610b27565b6100ad6100a836600461088b565b610111565b60405161007c96959493929190610a1b565b6100d26100cd3660046108c6565b610532565b005b61008d610734565b6100ef6100ea36600461088b565b61073a565b60405161007c9190610a10565b6001546001600160a01b031681565b60025481565b606080606060008060606000808860405161012c91906109e0565b90815260200160405180910390206040518061010001604052908160008201805461015690610b60565b80601f016020809104026020016040519081016040528092919081815260200182805461018290610b60565b80156101cf5780601f106101a4576101008083540402835291602001916101cf565b820191906000526020600020905b8154815290600101906020018083116101b257829003601f168201915b505050505081526020016001820180546101e890610b60565b80601f016020809104026020016040519081016040528092919081815260200182805461021490610b60565b80156102615780601f1061023657610100808354040283529160200191610261565b820191906000526020600020905b81548152906001019060200180831161024457829003601f168201915b5050505050815260200160028201805461027a90610b60565b80601f01602080910402602001604051908101604052809291908181526020018280546102a690610b60565b80156102f35780601f106102c8576101008083540402835291602001916102f3565b820191906000526020600020905b8154815290600101906020018083116102d657829003601f168201915b5050505050815260200160038201805461030c90610b60565b80601f016020809104026020016040519081016040528092919081815260200182805461033890610b60565b80156103855780601f1061035a57610100808354040283529160200191610385565b820191906000526020600020905b81548152906001019060200180831161036857829003601f168201915b5050505050815260200160048201805461039e90610b60565b80601f01602080910402602001604051908101604052809291908181526020018280546103ca90610b60565b80156104175780601f106103ec57610100808354040283529160200191610417565b820191906000526020600020905b8154815290600101906020018083116103fa57829003601f168201915b505050918352505060058201546020820152600682015460ff161515604082015260078201805460609092019161044d90610b60565b80601f016020809104026020016040519081016040528092919081815260200182805461047990610b60565b80156104c65780601f1061049b576101008083540402835291602001916104c6565b820191906000526020600020905b8154815290600101906020018083116104a957829003601f168201915b50505050508152505090506000816000015151116104ff5760405162461bcd60e51b81526004016104f690610a83565b60405180910390fd5b60208101516040820151606083015160c084015160a085015160e090950151939c929b5090995097509195509350915050565b6001546001600160a01b0316331461055c5760405162461bcd60e51b81526004016104f690610ae5565b60008660405161056c91906109e0565b908152604051908190036020019020805461058690610b60565b1590506105a55760405162461bcd60e51b81526004016104f690610aae565b604051806101000160405280878152602001868152602001858152602001848152602001838152602001428152602001600115158152602001828152506000876040516105f291906109e0565b9081526020016040518091039020600082015181600001908051906020019061061c929190610771565b5060208281015180516106359260018501920190610771565b5060408201518051610651916002840191602090910190610771565b506060820151805161066d916003840191602090910190610771565b5060808201518051610689916004840191602090910190610771565b5060a0820151600582015560c082015160068201805460ff191691151591909117905560e082015180516106c7916007840191602090910190610771565b505060028054915060006106da83610b9b565b9190505550856040516106ed91906109e0565b60405180910390207f0bf90f78ac64f6aa6f68471024f231048be0e9865869874ea9c414cca7bc49cc426040516107249190610b27565b60405180910390a2505050505050565b60025490565b60008060008360405161074d91906109e0565b908152604051908190036020019020805461076790610b60565b9050119050919050565b82805461077d90610b60565b90600052602060002090601f01602090048101928261079f57600085556107e5565b82601f106107b857805160ff19168380011785556107e5565b828001600101855582156107e5579182015b828111156107e55782518255916020019190600101906107ca565b506107f19291506107f5565b5090565b5b808211156107f157600081556001016107f6565b600082601f83011261081a578081fd5b813567ffffffffffffffff8082111561083557610835610bc2565b604051601f8301601f19168101602001828111828210171561085957610859610bc2565b604052828152848301602001861015610870578384fd5b82602086016020830137918201602001929092529392505050565b60006020828403121561089c578081fd5b813567ffffffffffffffff8111156108b2578182fd5b6108be8482850161080a565b949350505050565b60008060008060008060c087890312156108de578182fd5b863567ffffffffffffffff808211156108f5578384fd5b6109018a838b0161080a565b97506020890135915080821115610916578384fd5b6109228a838b0161080a565b96506040890135915080821115610937578384fd5b6109438a838b0161080a565b95506060890135915080821115610958578384fd5b6109648a838b0161080a565b94506080890135915080821115610979578384fd5b6109858a838b0161080a565b935060a089013591508082111561099a578283fd5b506109a789828a0161080a565b9150509295509295509295565b600081518084526109cc816020860160208601610b30565b601f01601f19169290920160200192915050565b600082516109f2818460208701610b30565b9190910192915050565b6001600160a01b0391909116815260200190565b901515815260200190565b600060c08252610a2e60c08301896109b4565b8281036020840152610a4081896109b4565b90508281036040840152610a5481886109b4565b9050851515606084015284608084015282810360a0840152610a7681856109b4565b9998505050505050505050565b6020808252601190820152701058591a18585c881b9bdd08199bdd5b99607a1b604082015260600190565b6020808252601a908201527f4161646861617220616c72656164792072656769737465726564000000000000604082015260600190565b60208082526022908201527f4f6e6c79206f776e65722063616e20706572666f726d2074686973206163746960408201526137b760f11b606082015260800190565b90815260200190565b60005b83811015610b4b578181015183820152602001610b33565b83811115610b5a576000848401525b50505050565b600281046001821680610b7457607f821691505b60208210811415610b9557634e487b7160e01b600052602260045260246000fd5b50919050565b6000600019821415610bbb57634e487b7160e01b81526011600452602481fd5b5060010190565b634e487b7160e01b600052604160045260246000fdfea2646970667358221220a1b61d829e3230826de1cbe4aba53b595aad578367614e8a925159eb0fdebd4364736f6c63430008000033",
  "immutableReferences": {},
  "source": "// SPDX-License-Identifier: MIT\r\npragma solidity ^0.8.0;\r\n\r\ncontract AadhaarVerification {\r\n    struct AadhaarData {\r\n        string aadhaarHash;\r\n        string name;\r\n        string dob;\r\n        string gender;\r\n        string addressHash;\r\n        uint256 timestamp;\r\n        bool isVerified;\r\n        string encryptedData; // Encrypted Aadhaar details\r\n    }\r\n    \r\n    mapping(string => AadhaarData) private aadhaarRecords;\r\n    address public owner;\r\n    uint256 public recordCount;\r\n    \r\n    event AadhaarRegistered(string indexed aadhaarHash, uint256 timestamp);\r\n    event AadhaarVerified(string indexed aadhaarHash, bool status);\r\n    \r\n    constructor() {\r\n        owner = msg.sender;\r\n        recordCount = 0;\r\n    }\r\n    \r\n    modifier onlyOwner() {\r\n        require(msg.sender == owner, \"Only owner can perform this action\");\r\n        _;\r\n    }\r\n    \r\n    // Store Aadhaar data on blockchain\r\n    function registerAadhaar(\r\n        string memory _aadhaarHash,\r\n        string memory _name,\r\n        string memory _dob,\r\n        string memory _gender,\r\n        string memory _addressHash,\r\n        string memory _encryptedData\r\n    ) public onlyOwner {\r\n        require(bytes(aadhaarRecords[_aadhaarHash].aadhaarHash).length == 0, \r\n                \"Aadhaar already registered\");\r\n        \r\n        aadhaarRecords[_aadhaarHash] = AadhaarData({\r\n            aadhaarHash: _aadhaarHash,\r\n            name: _name,\r\n            dob: _dob,\r\n            gender: _gender,\r\n            addressHash: _addressHash,\r\n            timestamp: block.timestamp,\r\n            isVerified: true,\r\n            encryptedData: _encryptedData\r\n        });\r\n        \r\n        recordCount++;\r\n        emit AadhaarRegistered(_aadhaarHash, block.timestamp);\r\n    }\r\n    \r\n    // Verify Aadhaar from blockchain\r\n    function verifyAadhaar(string memory _aadhaarHash) public view returns (\r\n        string memory name,\r\n        string memory dob,\r\n        string memory gender,\r\n        bool isVerified,\r\n        uint256 timestamp,\r\n        string memory encryptedData\r\n    ) {\r\n        AadhaarData memory data = aadhaarRecords[_aadhaarHash];\r\n        require(bytes(data.aadhaarHash).length > 0, \"Aadhaar not found\");\r\n        \r\n        return (\r\n            data.name,\r\n            data.dob,\r\n            data.gender,\r\n            data.isVerified,\r\n            data.timestamp,\r\n            data.encryptedData\r\n        );\r\n    }\r\n    \r\n    // Get total number of records\r\n    function getRecordCount() public view returns (uint256) {\r\n        return recordCount;\r\n    }\r\n    \r\n    // Check if Aadhaar exists\r\n    function isAadhaarRegistered(string memory _aadhaarHash) public view returns (bool) {\r\n        return bytes(aadhaarRecords[_aadhaarHash].aadhaarHash).length > 0;\r\n    }\r\n}",
  "sourcePath": "D:\\blockchain_login\\smart-contracts\\contracts\\AadhaarVerification.sol",
  "compiler": {
    "name": "solc",
    "version": "0.8.0+commit.c7dfd78e.Emscripten.clang"
  },
  "schemaVersion": "3.4.16",
  "updatedAt": "2025-12-28T13:32:54.975Z",
  "networkType": "ethereum",
  "devdoc": {
    "kind": "dev",
    "methods": {},
    "version": 1
  },
  "userdoc": {
    "kind": "user",
    "methods": {},
    "version": 1
  }
}